{
  "contractName": "CryptonomicaVerification",
  "abi": [
    {
      "constant": true,
      "inputs": [],
      "name": "priceForVerificationInWei",
      "outputs": [
        {
          "name": "",
          "type": "uint256"
        }
      ],
      "payable": false,
      "stateMutability": "view",
      "type": "function"
    },
    {
      "constant": true,
      "inputs": [
        {
          "name": "",
          "type": "address"
        }
      ],
      "name": "unverifiedFingerprint",
      "outputs": [
        {
          "name": "",
          "type": "string"
        }
      ],
      "payable": false,
      "stateMutability": "view",
      "type": "function"
    },
    {
      "constant": true,
      "inputs": [
        {
          "name": "",
          "type": "address"
        }
      ],
      "name": "signedString",
      "outputs": [
        {
          "name": "",
          "type": "string"
        }
      ],
      "payable": false,
      "stateMutability": "view",
      "type": "function"
    },
    {
      "constant": true,
      "inputs": [
        {
          "name": "",
          "type": "address"
        }
      ],
      "name": "verificationAddedOn",
      "outputs": [
        {
          "name": "",
          "type": "uint256"
        }
      ],
      "payable": false,
      "stateMutability": "view",
      "type": "function"
    },
    {
      "constant": true,
      "inputs": [
        {
          "name": "",
          "type": "address"
        }
      ],
      "name": "signedStringUploadedOnUnixTime",
      "outputs": [
        {
          "name": "",
          "type": "uint256"
        }
      ],
      "payable": false,
      "stateMutability": "view",
      "type": "function"
    },
    {
      "constant": true,
      "inputs": [
        {
          "name": "",
          "type": "address"
        }
      ],
      "name": "birthDate",
      "outputs": [
        {
          "name": "",
          "type": "uint256"
        }
      ],
      "payable": false,
      "stateMutability": "view",
      "type": "function"
    },
    {
      "constant": true,
      "inputs": [
        {
          "name": "",
          "type": "address"
        }
      ],
      "name": "keyCertificateValidUntil",
      "outputs": [
        {
          "name": "",
          "type": "uint256"
        }
      ],
      "payable": false,
      "stateMutability": "view",
      "type": "function"
    },
    {
      "constant": true,
      "inputs": [
        {
          "name": "",
          "type": "address"
        }
      ],
      "name": "fingerprint",
      "outputs": [
        {
          "name": "",
          "type": "bytes20"
        }
      ],
      "payable": false,
      "stateMutability": "view",
      "type": "function"
    },
    {
      "constant": true,
      "inputs": [
        {
          "name": "",
          "type": "address"
        }
      ],
      "name": "lastName",
      "outputs": [
        {
          "name": "",
          "type": "bytes32"
        }
      ],
      "payable": false,
      "stateMutability": "view",
      "type": "function"
    },
    {
      "constant": true,
      "inputs": [],
      "name": "withdrawalAddressFixed",
      "outputs": [
        {
          "name": "",
          "type": "bool"
        }
      ],
      "payable": false,
      "stateMutability": "view",
      "type": "function"
    },
    {
      "constant": true,
      "inputs": [
        {
          "name": "",
          "type": "address"
        }
      ],
      "name": "revokedOn",
      "outputs": [
        {
          "name": "",
          "type": "uint256"
        }
      ],
      "payable": false,
      "stateMutability": "view",
      "type": "function"
    },
    {
      "constant": true,
      "inputs": [],
      "name": "owner",
      "outputs": [
        {
          "name": "",
          "type": "address"
        }
      ],
      "payable": false,
      "stateMutability": "view",
      "type": "function"
    },
    {
      "constant": true,
      "inputs": [
        {
          "name": "",
          "type": "address"
        }
      ],
      "name": "verification",
      "outputs": [
        {
          "name": "fingerprint",
          "type": "string"
        },
        {
          "name": "keyCertificateValidUntil",
          "type": "uint256"
        },
        {
          "name": "firstName",
          "type": "string"
        },
        {
          "name": "lastName",
          "type": "string"
        },
        {
          "name": "birthDate",
          "type": "uint256"
        },
        {
          "name": "nationality",
          "type": "string"
        },
        {
          "name": "verificationAddedOn",
          "type": "uint256"
        },
        {
          "name": "revokedOn",
          "type": "uint256"
        },
        {
          "name": "signedString",
          "type": "string"
        }
      ],
      "payable": false,
      "stateMutability": "view",
      "type": "function"
    },
    {
      "constant": true,
      "inputs": [
        {
          "name": "",
          "type": "address"
        }
      ],
      "name": "firstName",
      "outputs": [
        {
          "name": "",
          "type": "bytes32"
        }
      ],
      "payable": false,
      "stateMutability": "view",
      "type": "function"
    },
    {
      "constant": true,
      "inputs": [],
      "name": "stringToSignExample",
      "outputs": [
        {
          "name": "",
          "type": "string"
        }
      ],
      "payable": false,
      "stateMutability": "view",
      "type": "function"
    },
    {
      "constant": true,
      "inputs": [
        {
          "name": "",
          "type": "bytes20"
        }
      ],
      "name": "addressAttached",
      "outputs": [
        {
          "name": "",
          "type": "address"
        }
      ],
      "payable": false,
      "stateMutability": "view",
      "type": "function"
    },
    {
      "constant": true,
      "inputs": [
        {
          "name": "",
          "type": "address"
        }
      ],
      "name": "nationality",
      "outputs": [
        {
          "name": "",
          "type": "bytes32"
        }
      ],
      "payable": false,
      "stateMutability": "view",
      "type": "function"
    },
    {
      "constant": true,
      "inputs": [],
      "name": "withdrawalAddress",
      "outputs": [
        {
          "name": "",
          "type": "address"
        }
      ],
      "payable": false,
      "stateMutability": "view",
      "type": "function"
    },
    {
      "constant": true,
      "inputs": [
        {
          "name": "",
          "type": "address"
        }
      ],
      "name": "isManager",
      "outputs": [
        {
          "name": "",
          "type": "bool"
        }
      ],
      "payable": false,
      "stateMutability": "view",
      "type": "function"
    },
    {
      "inputs": [],
      "payable": false,
      "stateMutability": "nonpayable",
      "type": "constructor"
    },
    {
      "anonymous": false,
      "inputs": [
        {
          "indexed": true,
          "name": "fromAccount",
          "type": "address"
        },
        {
          "indexed": false,
          "name": "fingerprint",
          "type": "string"
        },
        {
          "indexed": false,
          "name": "uploadedString",
          "type": "string"
        }
      ],
      "name": "SignedStringUploaded",
      "type": "event"
    },
    {
      "anonymous": false,
      "inputs": [
        {
          "indexed": false,
          "name": "forFingerprint",
          "type": "string"
        },
        {
          "indexed": true,
          "name": "verifiedAccount",
          "type": "address"
        },
        {
          "indexed": false,
          "name": "verificationAddedByAccount",
          "type": "address"
        }
      ],
      "name": "VerificationAdded",
      "type": "event"
    },
    {
      "anonymous": false,
      "inputs": [
        {
          "indexed": true,
          "name": "revocedforAccount",
          "type": "address"
        },
        {
          "indexed": false,
          "name": "withFingerprint",
          "type": "string"
        },
        {
          "indexed": false,
          "name": "revokedOnUnixTime",
          "type": "uint256"
        },
        {
          "indexed": true,
          "name": "revokedBy",
          "type": "address"
        }
      ],
      "name": "VerificationRevoked",
      "type": "event"
    },
    {
      "anonymous": false,
      "inputs": [
        {
          "indexed": true,
          "name": "startedBy",
          "type": "address"
        },
        {
          "indexed": true,
          "name": "newOwner",
          "type": "address"
        }
      ],
      "name": "ChangeOwnerStarted",
      "type": "event"
    },
    {
      "anonymous": false,
      "inputs": [
        {
          "indexed": true,
          "name": "from",
          "type": "address"
        },
        {
          "indexed": true,
          "name": "to",
          "type": "address"
        }
      ],
      "name": "OwnerChanged",
      "type": "event"
    },
    {
      "anonymous": false,
      "inputs": [
        {
          "indexed": true,
          "name": "added",
          "type": "address"
        },
        {
          "indexed": true,
          "name": "addedBy",
          "type": "address"
        }
      ],
      "name": "ManagerAdded",
      "type": "event"
    },
    {
      "anonymous": false,
      "inputs": [
        {
          "indexed": true,
          "name": "removed",
          "type": "address"
        },
        {
          "indexed": true,
          "name": "removedBy",
          "type": "address"
        }
      ],
      "name": "ManagerRemoved",
      "type": "event"
    },
    {
      "anonymous": false,
      "inputs": [
        {
          "indexed": false,
          "name": "from",
          "type": "uint256"
        },
        {
          "indexed": false,
          "name": "to",
          "type": "uint256"
        },
        {
          "indexed": true,
          "name": "changedBy",
          "type": "address"
        }
      ],
      "name": "PriceChanged",
      "type": "event"
    },
    {
      "anonymous": false,
      "inputs": [
        {
          "indexed": true,
          "name": "to",
          "type": "address"
        },
        {
          "indexed": false,
          "name": "sumInWei",
          "type": "uint256"
        },
        {
          "indexed": true,
          "name": "by",
          "type": "address"
        },
        {
          "indexed": false,
          "name": "success",
          "type": "bool"
        }
      ],
      "name": "Withdrawal",
      "type": "event"
    },
    {
      "anonymous": false,
      "inputs": [
        {
          "indexed": true,
          "name": "from",
          "type": "address"
        },
        {
          "indexed": true,
          "name": "to",
          "type": "address"
        },
        {
          "indexed": true,
          "name": "changedBy",
          "type": "address"
        }
      ],
      "name": "WithdrawalAddressChanged",
      "type": "event"
    },
    {
      "anonymous": false,
      "inputs": [
        {
          "indexed": false,
          "name": "withdrawalAddressFixedAs",
          "type": "address"
        },
        {
          "indexed": false,
          "name": "fixedBy",
          "type": "address"
        }
      ],
      "name": "WithdrawalAddressFixed",
      "type": "event"
    },
    {
      "constant": true,
      "inputs": [
        {
          "name": "source",
          "type": "string"
        }
      ],
      "name": "stringToBytes32",
      "outputs": [
        {
          "name": "result",
          "type": "bytes32"
        }
      ],
      "payable": false,
      "stateMutability": "pure",
      "type": "function"
    },
    {
      "constant": true,
      "inputs": [
        {
          "name": "_bytes32",
          "type": "bytes32"
        }
      ],
      "name": "bytes32ToString",
      "outputs": [
        {
          "name": "",
          "type": "string"
        }
      ],
      "payable": false,
      "stateMutability": "pure",
      "type": "function"
    },
    {
      "constant": false,
      "inputs": [
        {
          "name": "_fingerprint",
          "type": "string"
        },
        {
          "name": "_signedString",
          "type": "string"
        }
      ],
      "name": "uploadSignedString",
      "outputs": [],
      "payable": true,
      "stateMutability": "payable",
      "type": "function"
    },
    {
      "constant": false,
      "inputs": [
        {
          "name": "_acc",
          "type": "address"
        },
        {
          "name": "_fingerprint",
          "type": "string"
        },
        {
          "name": "_fingerprintBytes20",
          "type": "bytes20"
        },
        {
          "name": "_keyCertificateValidUntil",
          "type": "uint256"
        },
        {
          "name": "_firstName",
          "type": "string"
        },
        {
          "name": "_lastName",
          "type": "string"
        },
        {
          "name": "_birthDate",
          "type": "uint256"
        },
        {
          "name": "_nationality",
          "type": "string"
        }
      ],
      "name": "addVerificationData",
      "outputs": [],
      "payable": false,
      "stateMutability": "nonpayable",
      "type": "function"
    },
    {
      "constant": false,
      "inputs": [
        {
          "name": "_acc",
          "type": "address"
        }
      ],
      "name": "revokeVerification",
      "outputs": [],
      "payable": false,
      "stateMutability": "nonpayable",
      "type": "function"
    },
    {
      "constant": false,
      "inputs": [
        {
          "name": "_newOwner",
          "type": "address"
        }
      ],
      "name": "changeOwnerStart",
      "outputs": [],
      "payable": false,
      "stateMutability": "nonpayable",
      "type": "function"
    },
    {
      "constant": false,
      "inputs": [],
      "name": "changeOwnerAccept",
      "outputs": [],
      "payable": false,
      "stateMutability": "nonpayable",
      "type": "function"
    },
    {
      "constant": false,
      "inputs": [
        {
          "name": "_acc",
          "type": "address"
        }
      ],
      "name": "addManager",
      "outputs": [],
      "payable": false,
      "stateMutability": "nonpayable",
      "type": "function"
    },
    {
      "constant": false,
      "inputs": [
        {
          "name": "manager",
          "type": "address"
        }
      ],
      "name": "removeManager",
      "outputs": [],
      "payable": false,
      "stateMutability": "nonpayable",
      "type": "function"
    },
    {
      "constant": false,
      "inputs": [
        {
          "name": "priceInWei",
          "type": "uint256"
        }
      ],
      "name": "setPriceForVerification",
      "outputs": [],
      "payable": false,
      "stateMutability": "nonpayable",
      "type": "function"
    },
    {
      "constant": false,
      "inputs": [],
      "name": "withdrawAllToWithdrawalAddress",
      "outputs": [
        {
          "name": "",
          "type": "bool"
        }
      ],
      "payable": false,
      "stateMutability": "nonpayable",
      "type": "function"
    },
    {
      "constant": false,
      "inputs": [
        {
          "name": "_withdrawalAddress",
          "type": "address"
        }
      ],
      "name": "setWithdrawalAddress",
      "outputs": [],
      "payable": false,
      "stateMutability": "nonpayable",
      "type": "function"
    },
    {
      "constant": false,
      "inputs": [
        {
          "name": "_withdrawalAddress",
          "type": "address"
        }
      ],
      "name": "fixWithdrawalAddress",
      "outputs": [
        {
          "name": "",
          "type": "bool"
        }
      ],
      "payable": false,
      "stateMutability": "nonpayable",
      "type": "function"
    }
  ],
  "bytecode": "0x6060604052608060405190810160405280604c81526020017f492068657265627920636f6e6669726d2074686174207468652061646472657381526020017f73203c61646472657373206c6f776572636173653e206973206d79204574686581526020017f7265756d20616464726573730000000000000000000000000000000000000000815250600c90805190602001906200009e929190620001a6565b506000601160146101000a81548160ff0219169083151502179055503415620000c657600080fd5b33600e60006101000a81548173ffffffffffffffffffffffffffffffffffffffff021916908373ffffffffffffffffffffffffffffffffffffffff1602179055506001600f60003373ffffffffffffffffffffffffffffffffffffffff1673ffffffffffffffffffffffffffffffffffffffff16815260200190815260200160002060006101000a81548160ff02191690831515021790555033601160006101000a81548173ffffffffffffffffffffffffffffffffffffffff021916908373ffffffffffffffffffffffffffffffffffffffff16021790555062000255565b828054600181600116156101000203166002900490600052602060002090601f016020900481019282601f10620001e957805160ff19168380011785556200021a565b828001600101855582156200021a579182015b8281111562000219578251825591602001919060010190620001fc565b5b5090506200022991906200022d565b5090565b6200025291905b808211156200024e57600081600090555060010162000234565b5090565b90565b612c3280620002656000396000f300606060405260043610610196576000357c0100000000000000000000000000000000000000000000000000000000900463ffffffff16806302c293491461019b5780630851903b146101ec57806309905bdb146102815780630dc2968c146102aa57806321b8092e1461035c57806322652e05146103955780632d06177a1461044757806339b51e7c1461048057806345d6f02e146104cd57806347889c421461051a578063546e1959146105675780635b3d0bc1146105a057806361b027b0146105ed57806365455fdc14610658578063735dca66146106ad57806376e57d4b1461081c578063836afead146108495780638da5cb5b146108965780639201de55146108eb57806392b4e1321461098b5780639538833c14610c9a5780639a159bf614610caf578063ac18de4314610d04578063b17a98b614610d3d578063c668844514610d6a578063cfb5192814610df8578063d6e87b4414610e71578063e998d2fa14610ee3578063ec94526914610f1c578063f2bcd02214610f71578063f3ae241514610fc6578063fb20dc8014611017575b600080fd5b34156101a657600080fd5b6101d2600480803573ffffffffffffffffffffffffffffffffffffffff1690602001909190505061103a565b604051808215151515815260200191505060405180910390f35b61027f600480803590602001908201803590602001908080601f0160208091040260200160405190810160405280939291908181526020018383808284378201915050505050509190803590602001908201803590602001908080601f016020809104026020016040519081016040528093929190818152602001838380828437820191505050505050919050506111ed565b005b341561028c57600080fd5b6102946114c5565b6040518082815260200191505060405180910390f35b34156102b557600080fd5b6102e1600480803573ffffffffffffffffffffffffffffffffffffffff169060200190919050506114cb565b6040518080602001828103825283818151815260200191508051906020019080838360005b83811015610321578082015181840152602081019050610306565b50505050905090810190601f16801561034e5780820380516001836020036101000a031916815260200191505b509250505060405180910390f35b341561036757600080fd5b610393600480803573ffffffffffffffffffffffffffffffffffffffff1690602001909190505061157b565b005b34156103a057600080fd5b6103cc600480803573ffffffffffffffffffffffffffffffffffffffff169060200190919050506116ca565b6040518080602001828103825283818151815260200191508051906020019080838360005b8381101561040c5780820151818401526020810190506103f1565b50505050905090810190601f1680156104395780820380516001836020036101000a031916815260200191505b509250505060405180910390f35b341561045257600080fd5b61047e600480803573ffffffffffffffffffffffffffffffffffffffff1690602001909190505061177a565b005b341561048b57600080fd5b6104b7600480803573ffffffffffffffffffffffffffffffffffffffff1690602001909190505061188b565b6040518082815260200191505060405180910390f35b34156104d857600080fd5b610504600480803573ffffffffffffffffffffffffffffffffffffffff169060200190919050506118a3565b6040518082815260200191505060405180910390f35b341561052557600080fd5b610551600480803573ffffffffffffffffffffffffffffffffffffffff169060200190919050506118bb565b6040518082815260200191505060405180910390f35b341561057257600080fd5b61059e600480803573ffffffffffffffffffffffffffffffffffffffff169060200190919050506118d3565b005b34156105ab57600080fd5b6105d7600480803573ffffffffffffffffffffffffffffffffffffffff169060200190919050506119cd565b6040518082815260200191505060405180910390f35b34156105f857600080fd5b610624600480803573ffffffffffffffffffffffffffffffffffffffff169060200190919050506119e5565b60405180826bffffffffffffffffffffffff19166bffffffffffffffffffffffff1916815260200191505060405180910390f35b341561066357600080fd5b61068f600480803573ffffffffffffffffffffffffffffffffffffffff16906020019091905050611a11565b60405180826000191660001916815260200191505060405180910390f35b34156106b857600080fd5b61081a600480803573ffffffffffffffffffffffffffffffffffffffff1690602001909190803590602001908201803590602001908080601f016020809104026020016040519081016040528093929190818152602001838380828437820191505050505050919080356bffffffffffffffffffffffff191690602001909190803590602001909190803590602001908201803590602001908080601f0160208091040260200160405190810160405280939291908181526020018383808284378201915050505050509190803590602001908201803590602001908080601f0160208091040260200160405190810160405280939291908181526020018383808284378201915050505050509190803590602001909190803590602001908201803590602001908080601f01602080910402602001604051908101604052809392919081815260200183838082843782019150505050505091905050611a29565b005b341561082757600080fd5b61082f61213b565b604051808215151515815260200191505060405180910390f35b341561085457600080fd5b610880600480803573ffffffffffffffffffffffffffffffffffffffff1690602001909190505061214e565b6040518082815260200191505060405180910390f35b34156108a157600080fd5b6108a9612166565b604051808273ffffffffffffffffffffffffffffffffffffffff1673ffffffffffffffffffffffffffffffffffffffff16815260200191505060405180910390f35b34156108f657600080fd5b61091060048080356000191690602001909190505061218c565b6040518080602001828103825283818151815260200191508051906020019080838360005b83811015610950578082015181840152602081019050610935565b50505050905090810190601f16801561097d5780820380516001836020036101000a031916815260200191505b509250505060405180910390f35b341561099657600080fd5b6109c2600480803573ffffffffffffffffffffffffffffffffffffffff16906020019091905050612254565b60405180806020018a81526020018060200180602001898152602001806020018881526020018781526020018060200186810386528f818154600181600116156101000203166002900481526020019150805460018160011615610100020316600290048015610a735780601f10610a4857610100808354040283529160200191610a73565b820191906000526020600020905b815481529060010190602001808311610a5657829003601f168201915b505086810385528d818154600181600116156101000203166002900481526020019150805460018160011615610100020316600290048015610af65780601f10610acb57610100808354040283529160200191610af6565b820191906000526020600020905b815481529060010190602001808311610ad957829003601f168201915b505086810384528c818154600181600116156101000203166002900481526020019150805460018160011615610100020316600290048015610b795780601f10610b4e57610100808354040283529160200191610b79565b820191906000526020600020905b815481529060010190602001808311610b5c57829003601f168201915b505086810383528a818154600181600116156101000203166002900481526020019150805460018160011615610100020316600290048015610bfc5780601f10610bd157610100808354040283529160200191610bfc565b820191906000526020600020905b815481529060010190602001808311610bdf57829003601f168201915b5050868103825287818154600181600116156101000203166002900481526020019150805460018160011615610100020316600290048015610c7f5780601f10610c5457610100808354040283529160200191610c7f565b820191906000526020600020905b815481529060010190602001808311610c6257829003601f168201915b50509e50505050505050505050505050505060405180910390f35b3415610ca557600080fd5b610cad61229d565b005b3415610cba57600080fd5b610ce6600480803573ffffffffffffffffffffffffffffffffffffffff169060200190919050506123fc565b60405180826000191660001916815260200191505060405180910390f35b3415610d0f57600080fd5b610d3b600480803573ffffffffffffffffffffffffffffffffffffffff16906020019091905050612414565b005b3415610d4857600080fd5b610d50612525565b604051808215151515815260200191505060405180910390f35b3415610d7557600080fd5b610d7d6126f0565b6040518080602001828103825283818151815260200191508051906020019080838360005b83811015610dbd578082015181840152602081019050610da2565b50505050905090810190601f168015610dea5780820380516001836020036101000a031916815260200191505b509250505060405180910390f35b3415610e0357600080fd5b610e53600480803590602001908201803590602001908080601f0160208091040260200160405190810160405280939291908181526020018383808284378201915050505050509190505061278e565b60405180826000191660001916815260200191505060405180910390f35b3415610e7c57600080fd5b610ea160048080356bffffffffffffffffffffffff191690602001909190505061279c565b604051808273ffffffffffffffffffffffffffffffffffffffff1673ffffffffffffffffffffffffffffffffffffffff16815260200191505060405180910390f35b3415610eee57600080fd5b610f1a600480803573ffffffffffffffffffffffffffffffffffffffff169060200190919050506127cf565b005b3415610f2757600080fd5b610f53600480803573ffffffffffffffffffffffffffffffffffffffff16906020019091905050612a19565b60405180826000191660001916815260200191505060405180910390f35b3415610f7c57600080fd5b610f84612a31565b604051808273ffffffffffffffffffffffffffffffffffffffff1673ffffffffffffffffffffffffffffffffffffffff16815260200191505060405180910390f35b3415610fd157600080fd5b610ffd600480803573ffffffffffffffffffffffffffffffffffffffff16906020019091905050612a57565b604051808215151515815260200191505060405180910390f35b341561102257600080fd5b6110386004808035906020019091905050612a77565b005b6000600e60009054906101000a900473ffffffffffffffffffffffffffffffffffffffff1673ffffffffffffffffffffffffffffffffffffffff163373ffffffffffffffffffffffffffffffffffffffff1614151561109857600080fd5b8173ffffffffffffffffffffffffffffffffffffffff16601160009054906101000a900473ffffffffffffffffffffffffffffffffffffffff1673ffffffffffffffffffffffffffffffffffffffff161415156110f457600080fd5b601160149054906101000a900460ff1615151561111057600080fd5b6001601160146101000a81548160ff0219169083151502179055507fff51cf04e7fbddffc521b8673e9282b10a91c659c12eea9ef99182bd9a95ff71601160009054906101000a900473ffffffffffffffffffffffffffffffffffffffff1633604051808373ffffffffffffffffffffffffffffffffffffffff1673ffffffffffffffffffffffffffffffffffffffff1681526020018273ffffffffffffffffffffffffffffffffffffffff1673ffffffffffffffffffffffffffffffffffffffff1681526020019250505060405180910390a160019050919050565b6010543410156111fc57600080fd5b6000600a60003373ffffffffffffffffffffffffffffffffffffffff1673ffffffffffffffffffffffffffffffffffffffff1681526020019081526020016000205414151561124a57600080fd5b6028825114151561125a57600080fd5b81600160003373ffffffffffffffffffffffffffffffffffffffff1673ffffffffffffffffffffffffffffffffffffffff16815260200190815260200160002090805190602001906112ad929190612b39565b5080600960003373ffffffffffffffffffffffffffffffffffffffff1673ffffffffffffffffffffffffffffffffffffffff1681526020019081526020016000209080519060200190611301929190612b39565b5042600a60003373ffffffffffffffffffffffffffffffffffffffff1673ffffffffffffffffffffffffffffffffffffffff168152602001908152602001600020819055503373ffffffffffffffffffffffffffffffffffffffff167f3c21c5143ac760b44e24852cca9d3858a3487646fe0fa6c591aa3199cc65531a83600960003373ffffffffffffffffffffffffffffffffffffffff1673ffffffffffffffffffffffffffffffffffffffff168152602001908152602001600020604051808060200180602001838103835285818151815260200191508051906020019080838360005b838110156114025780820151818401526020810190506113e7565b50505050905090810190601f16801561142f5780820380516001836020036101000a031916815260200191505b508381038252848181546001816001161561010002031660029004815260200191508054600181600116156101000203166002900480156114b15780601f10611486576101008083540402835291602001916114b1565b820191906000526020600020905b81548152906001019060200180831161149457829003601f168201915b505094505050505060405180910390a25050565b60105481565b60016020528060005260406000206000915090508054600181600116156101000203166002900480601f0160208091040260200160405190810160405280929190818152602001828054600181600116156101000203166002900480156115735780601f1061154857610100808354040283529160200191611573565b820191906000526020600020905b81548152906001019060200180831161155657829003601f168201915b505050505081565b600e60009054906101000a900473ffffffffffffffffffffffffffffffffffffffff1673ffffffffffffffffffffffffffffffffffffffff163373ffffffffffffffffffffffffffffffffffffffff161415156115d757600080fd5b601160149054906101000a900460ff161515156115f357600080fd5b3373ffffffffffffffffffffffffffffffffffffffff168173ffffffffffffffffffffffffffffffffffffffff16601160009054906101000a900473ffffffffffffffffffffffffffffffffffffffff1673ffffffffffffffffffffffffffffffffffffffff167f15fc95cfd5d20b9661cf80c2719d8e3180bee6d89379a03b7b14ca6ac6adea9860405160405180910390a480601160006101000a81548173ffffffffffffffffffffffffffffffffffffffff021916908373ffffffffffffffffffffffffffffffffffffffff16021790555050565b60096020528060005260406000206000915090508054600181600116156101000203166002900480601f0160208091040260200160405190810160405280929190818152602001828054600181600116156101000203166002900480156117725780601f1061174757610100808354040283529160200191611772565b820191906000526020600020905b81548152906001019060200180831161175557829003601f168201915b505050505081565b600e60009054906101000a900473ffffffffffffffffffffffffffffffffffffffff1673ffffffffffffffffffffffffffffffffffffffff163373ffffffffffffffffffffffffffffffffffffffff161415156117d657600080fd5b6001600f60008373ffffffffffffffffffffffffffffffffffffffff1673ffffffffffffffffffffffffffffffffffffffff16815260200190815260200160002060006101000a81548160ff0219169083151502179055503373ffffffffffffffffffffffffffffffffffffffff168173ffffffffffffffffffffffffffffffffffffffff167f05a4006f300442cf8b7fdb885f5ee958812020bffb5c5a8e655fde64e5f987ed60405160405180910390a350565b60076020528060005260406000206000915090505481565b600a6020528060005260406000206000915090505481565b60056020528060005260406000206000915090505481565b600e60009054906101000a900473ffffffffffffffffffffffffffffffffffffffff1673ffffffffffffffffffffffffffffffffffffffff163373ffffffffffffffffffffffffffffffffffffffff1614151561192f57600080fd5b80601260006101000a81548173ffffffffffffffffffffffffffffffffffffffff021916908373ffffffffffffffffffffffffffffffffffffffff1602179055508073ffffffffffffffffffffffffffffffffffffffff163373ffffffffffffffffffffffffffffffffffffffff167f856621e76473127fb731503843c14f7b85c6c36fc405c3ea121471425f54fd7960405160405180910390a350565b60026020528060005260406000206000915090505481565b60006020528060005260406000206000915054906101000a90046c010000000000000000000000000281565b60046020528060005260406000206000915090505481565b600f60003373ffffffffffffffffffffffffffffffffffffffff1673ffffffffffffffffffffffffffffffffffffffff16815260200190815260200160002060009054906101000a900460ff161515611a8157600080fd5b6000600a60008a73ffffffffffffffffffffffffffffffffffffffff1673ffffffffffffffffffffffffffffffffffffffff1681526020019081526020016000205414151515611ad057600080fd5b6000600760008a73ffffffffffffffffffffffffffffffffffffffff1673ffffffffffffffffffffffffffffffffffffffff16815260200190815260200160002054141515611b1e57600080fd5b86600d60008a73ffffffffffffffffffffffffffffffffffffffff1673ffffffffffffffffffffffffffffffffffffffff1681526020019081526020016000206000019080519060200190611b74929190612b39565b50856000808a73ffffffffffffffffffffffffffffffffffffffff1673ffffffffffffffffffffffffffffffffffffffff16815260200190815260200160002060006101000a81548173ffffffffffffffffffffffffffffffffffffffff02191690836c010000000000000000000000009004021790555087600b6000886bffffffffffffffffffffffff19166bffffffffffffffffffffffff1916815260200190815260200160002060006101000a81548173ffffffffffffffffffffffffffffffffffffffff021916908373ffffffffffffffffffffffffffffffffffffffff16021790555084600260008a73ffffffffffffffffffffffffffffffffffffffff1673ffffffffffffffffffffffffffffffffffffffff168152602001908152602001600020819055600d60008a73ffffffffffffffffffffffffffffffffffffffff1673ffffffffffffffffffffffffffffffffffffffff1681526020019081526020016000206001018190555083600d60008a73ffffffffffffffffffffffffffffffffffffffff1673ffffffffffffffffffffffffffffffffffffffff1681526020019081526020016000206002019080519060200190611d3b929190612b39565b50611d458461278e565b600360008a73ffffffffffffffffffffffffffffffffffffffff1673ffffffffffffffffffffffffffffffffffffffff168152602001908152602001600020816000191690555082600d60008a73ffffffffffffffffffffffffffffffffffffffff1673ffffffffffffffffffffffffffffffffffffffff1681526020019081526020016000206003019080519060200190611de2929190612b39565b50611dec8361278e565b600460008a73ffffffffffffffffffffffffffffffffffffffff1673ffffffffffffffffffffffffffffffffffffffff168152602001908152602001600020816000191690555081600560008a73ffffffffffffffffffffffffffffffffffffffff1673ffffffffffffffffffffffffffffffffffffffff168152602001908152602001600020819055600d60008a73ffffffffffffffffffffffffffffffffffffffff1673ffffffffffffffffffffffffffffffffffffffff1681526020019081526020016000206004018190555080600d60008a73ffffffffffffffffffffffffffffffffffffffff1673ffffffffffffffffffffffffffffffffffffffff1681526020019081526020016000206005019080519060200190611f12929190612b39565b50611f1c8161278e565b600660008a73ffffffffffffffffffffffffffffffffffffffff1673ffffffffffffffffffffffffffffffffffffffff168152602001908152602001600020816000191690555042600760008a73ffffffffffffffffffffffffffffffffffffffff1673ffffffffffffffffffffffffffffffffffffffff168152602001908152602001600020819055600d60008a73ffffffffffffffffffffffffffffffffffffffff1673ffffffffffffffffffffffffffffffffffffffff168152602001908152602001600020600601819055508773ffffffffffffffffffffffffffffffffffffffff167f2014ad745d5cc240a4565583f1c0cf348b91f892966a154d418c591911ea04bf600d60008b73ffffffffffffffffffffffffffffffffffffffff1673ffffffffffffffffffffffffffffffffffffffff1681526020019081526020016000206000013360405180806020018373ffffffffffffffffffffffffffffffffffffffff1673ffffffffffffffffffffffffffffffffffffffff1681526020018281038252848181546001816001161561010002031660029004815260200191508054600181600116156101000203166002900480156121225780601f106120f757610100808354040283529160200191612122565b820191906000526020600020905b81548152906001019060200180831161210557829003601f168201915b5050935050505060405180910390a25050505050505050565b601160149054906101000a900460ff1681565b60086020528060005260406000206000915090505481565b600e60009054906101000a900473ffffffffffffffffffffffffffffffffffffffff1681565b612194612bb9565b61219c612bcd565b600060206040518059106121ad5750595b9080825280601f01601f191660200182016040525091505b602081101561224a5783816020811015156121dc57fe5b1a7f010000000000000000000000000000000000000000000000000000000000000002828281518110151561220d57fe5b9060200101907effffffffffffffffffffffffffffffffffffffffffffffffffffffffffffff1916908160001a90535080806001019150506121c5565b8192505050919050565b600d602052806000526040600020600091509050806000019080600101549080600201908060030190806004015490806005019080600601549080600701549080600801905089565b601260009054906101000a900473ffffffffffffffffffffffffffffffffffffffff1673ffffffffffffffffffffffffffffffffffffffff163373ffffffffffffffffffffffffffffffffffffffff161415156122f957600080fd5b601260009054906101000a900473ffffffffffffffffffffffffffffffffffffffff1673ffffffffffffffffffffffffffffffffffffffff16600e60009054906101000a900473ffffffffffffffffffffffffffffffffffffffff1673ffffffffffffffffffffffffffffffffffffffff167fb532073b38c83145e3e5135377a08bf9aab55bc0fd7c1179cd4fb995d2a5159c60405160405180910390a3601260009054906101000a900473ffffffffffffffffffffffffffffffffffffffff16600e60006101000a81548173ffffffffffffffffffffffffffffffffffffffff021916908373ffffffffffffffffffffffffffffffffffffffff160217905550565b60036020528060005260406000206000915090505481565b600e60009054906101000a900473ffffffffffffffffffffffffffffffffffffffff1673ffffffffffffffffffffffffffffffffffffffff163373ffffffffffffffffffffffffffffffffffffffff1614151561247057600080fd5b6000600f60008373ffffffffffffffffffffffffffffffffffffffff1673ffffffffffffffffffffffffffffffffffffffff16815260200190815260200160002060006101000a81548160ff0219169083151502179055503373ffffffffffffffffffffffffffffffffffffffff168173ffffffffffffffffffffffffffffffffffffffff167f3e902a6ee93dd5b2d48bd1009c7701a481be512b1ef73dbed2f95ea44c59ea8860405160405180910390a350565b6000803073ffffffffffffffffffffffffffffffffffffffff16319050601160009054906101000a900473ffffffffffffffffffffffffffffffffffffffff1673ffffffffffffffffffffffffffffffffffffffff166108fc3073ffffffffffffffffffffffffffffffffffffffff16319081150290604051600060405180830381858888f193505050501515612653573373ffffffffffffffffffffffffffffffffffffffff16601160009054906101000a900473ffffffffffffffffffffffffffffffffffffffff1673ffffffffffffffffffffffffffffffffffffffff167f78746de4b42c369479b14075849ee3378535cb810d96e74712e26a7924f7b02183600060405180838152602001821515151581526020019250505060405180910390a3600091506126ec565b3373ffffffffffffffffffffffffffffffffffffffff16601160009054906101000a900473ffffffffffffffffffffffffffffffffffffffff1673ffffffffffffffffffffffffffffffffffffffff167f78746de4b42c369479b14075849ee3378535cb810d96e74712e26a7924f7b02183600160405180838152602001821515151581526020019250505060405180910390a3600191505b5090565b600c8054600181600116156101000203166002900480601f0160208091040260200160405190810160405280929190818152602001828054600181600116156101000203166002900480156127865780601f1061275b57610100808354040283529160200191612786565b820191906000526020600020905b81548152906001019060200180831161276957829003601f168201915b505050505081565b600060208201519050919050565b600b6020528060005260406000206000915054906101000a900473ffffffffffffffffffffffffffffffffffffffff1681565b8073ffffffffffffffffffffffffffffffffffffffff163373ffffffffffffffffffffffffffffffffffffffff1614806128525750600f60003373ffffffffffffffffffffffffffffffffffffffff1673ffffffffffffffffffffffffffffffffffffffff16815260200190815260200160002060009054906101000a900460ff165b151561285d57600080fd5b42600860008373ffffffffffffffffffffffffffffffffffffffff1673ffffffffffffffffffffffffffffffffffffffff168152602001908152602001600020819055600d60008373ffffffffffffffffffffffffffffffffffffffff1673ffffffffffffffffffffffffffffffffffffffff168152602001908152602001600020600701819055503373ffffffffffffffffffffffffffffffffffffffff168173ffffffffffffffffffffffffffffffffffffffff167fc6f2b8565550ea0e6941e2f0f6b7e65e5eb1fdccb33e0c7815af0f3ce5669cff600d60008573ffffffffffffffffffffffffffffffffffffffff1673ffffffffffffffffffffffffffffffffffffffff168152602001908152602001600020600001426040518080602001838152602001828103825284818154600181600116156101000203166002900481526020019150805460018160011615610100020316600290048015612a075780601f106129dc57610100808354040283529160200191612a07565b820191906000526020600020905b8154815290600101906020018083116129ea57829003601f168201915b5050935050505060405180910390a350565b60066020528060005260406000206000915090505481565b601160009054906101000a900473ffffffffffffffffffffffffffffffffffffffff1681565b600f6020528060005260406000206000915054906101000a900460ff1681565b6000600f60003373ffffffffffffffffffffffffffffffffffffffff1673ffffffffffffffffffffffffffffffffffffffff16815260200190815260200160002060009054906101000a900460ff161515612ad157600080fd5b6010549050816010819055503373ffffffffffffffffffffffffffffffffffffffff167f665d155f71ad96c4a04629d54ef9fb27ef57911253588f2ee93474cd02fa3f5382601054604051808381526020018281526020019250505060405180910390a25050565b828054600181600116156101000203166002900490600052602060002090601f016020900481019282601f10612b7a57805160ff1916838001178555612ba8565b82800160010185558215612ba8579182015b82811115612ba7578251825591602001919060010190612b8c565b5b509050612bb59190612be1565b5090565b602060405190810160405280600081525090565b602060405190810160405280600081525090565b612c0391905b80821115612bff576000816000905550600101612be7565b5090565b905600a165627a7a72305820306df0ed16f4a37894936535e4c8b27d09c8e3a43e2a502bb4ec622de651d4e20029",
  "source": "pragma solidity ^0.4.19;\n\n/*\ndeveloped by cryptonomica.net, 2018\nlast version: 2018-02-18\ngithub: https://github.com/Cryptonomica/\n*/\n\ncontract CryptonomicaVerification {\n\n    /* ---------------------- Verification Data */\n\n    // Ethereum address is connected to OpenPGP public key data from Cryptonomica.net\n    // Ethereum address can be connected to one OpenPGP key only, and one time only\n    // If OpenPGP key expires, user have to use another Ethereum address for new OpenPGP public key\n    // But user can verify multiple Ethereum accounts with the same OpenPGP key\n\n    // ---- mappings to store verification data, to make it accessible for other smart contracts\n    // we store sting data as bytes32 (http://solidity.readthedocs.io/en/develop/types.html#fixed-size-byte-arrays)\n    // !!! -> up to 32 ASCII letters,\n    // see: https://ethereum.stackexchange.com/questions/6729/how-many-letters-can-bytes32-keep\n\n    // OpenPGP Message Format https://tools.ietf.org/html/rfc4880#section-12.2 : \"A V4 fingerprint is the 160-bit SHA-1 hash ...\"\n    // thus fingerprint is 20 bytes, in hexadecimal 40 symbols string representation\n    // fingerprints are stored as upper case strings like:\n    // 57A5FEE5A34D563B4B85ADF3CE369FD9E77173E5\n    // or as bytes20: \"0x57A5FEE5A34D563B4B85ADF3CE369FD9E77173E5\" from web3.js or Bytes20 from web3j\n    // see: https://crypto.stackexchange.com/questions/32087/how-to-generate-fingerprint-for-pgp-public-key\n    mapping(address => bytes20) public fingerprint; // ..............................................................0\n\n    // we use unverifiedFingerprintAsString to store fingerprint provided by user\n    mapping(address => string) public unverifiedFingerprint; // (!) Gas requirement: infinite\n\n    mapping(address => uint) public keyCertificateValidUntil; // unix time ..........................................1\n    mapping(address => bytes32) public firstName; // ................................................................2\n    mapping(address => bytes32) public lastName; // .................................................................3\n    mapping(address => uint) public birthDate; // unix time .........................................................4\n    // Nationality - from user passport or id document:\n    // 2-letter country codes defined in ISO 3166\n    // like returned by Locale.getISOCountries() in Java (upper case)\n    // see: https://en.wikipedia.org/wiki/ISO_3166-1_alpha-2\n    mapping(address => bytes32) public nationality; //      .........................................................5\n    mapping(address => uint256) public verificationAddedOn; // unix time ............................................6\n    mapping(address => uint256) public revokedOn; // unix time, returns uint256: 0 if verification is not revoked ...7\n    // this will be longer than 32 char, and have to be properly formatted (with \"\\n\")\n    mapping(address => string) public signedString; //.(!) Gas requirement: infinite.................................8\n\n    // unix time online converter: https://www.epochconverter.com\n    // for coders: http://www.convert-unix-time.com\n    mapping(address => uint256) public signedStringUploadedOnUnixTime;\n\n    // this allows to search for account connected to fingerprint\n    // as a key we use fingerprint as bytes32, like 0x57A5FEE5A34D563B4B85ADF3CE369FD9E77173E5\n    mapping(bytes20 => address) public addressAttached; //\n\n    // (!) Gas requirement: infinite\n    string public stringToSignExample = \"I hereby confirm that the address <address lowercase> is my Ethereum address\";\n\n    /* the same data as above stored as a struct:\n    struct will be returned as 'List' in web3j (only one function call needed) */\n    mapping(address => Verification) public verification; // (!) Gas requirement: infinite\n    struct Verification {\n        // all string have to be <= 32 chars\n        string fingerprint; // ................................................0\n        uint keyCertificateValidUntil; // .....................................1\n        string firstName; // ..................................................2\n        string lastName;// ....................................................3\n        uint birthDate; //  ...................................................4\n        string nationality; //  ...............................................5\n        uint verificationAddedOn;// ...........................................6\n        uint revokedOn; // ....................................................7\n        string signedString; //................................................8\n        // uint256 signedStringUploadedOnUnixTime; //... Stack too deep\n    }\n\n    /*  -------------------- Administrative Data */\n    address public owner; // smart contract owner (super admin)\n    mapping(address => bool) public isManager; // list of managers\n\n    uint public priceForVerificationInWei; // see converter on https://etherconverter.online/\n\n    address public withdrawalAddress; // address to send Ether from this contract\n    bool public withdrawalAddressFixed = false; // this can be smart contract with manages ETH from this SC\n\n    /* --------------------- Constructor */\n    function CryptonomicaVerification() public {// Constructor must be public or internal\n        owner = msg.sender;\n        isManager[msg.sender] = true;\n        withdrawalAddress = msg.sender;\n    }\n\n    /* -------------------- Utility functions : ---------------------- */\n\n    // (?) CryptonomicaVerification.stringToBytes32(string memory) : Is constant but potentially should not be.\n    // probably because of 'using low-level calls' or 'using inline assembly that contains certain opcodes'\n    // but 'The compiler does not enforce yet that a pure method is not reading from the state.'\n    // > in fact works as constant\n    function stringToBytes32(string memory source) public pure returns (bytes32 result) {// (!) Gas requirement: infinite\n        // require(bytes(source).length <= 32); // causes error, but string have to be max 32 chars\n\n        // https://ethereum.stackexchange.com/questions/9603/understanding-mload-assembly-function\n        // http://solidity.readthedocs.io/en/latest/assembly.html\n        // this converts every char to its byte representation\n        // see hex codes on http://www.asciitable.com/ (7 > 37, a > 61, z > 7a)\n        // \"az7\" > 0x617a370000000000000000000000000000000000000000000000000000000000\n        assembly {\n            result := mload(add(source, 32))\n        }\n    }\n\n    // see also:\n    // https://ethereum.stackexchange.com/questions/2519/how-to-convert-a-bytes32-to-string\n    // https://ethereum.stackexchange.com/questions/1081/how-to-concatenate-a-bytes32-array-to-a-string\n    // 0x617a370000000000000000000000000000000000000000000000000000000000 > \"az7\"\n    function bytes32ToString(bytes32 _bytes32) public pure returns (string){// (!) Gas requirement: infinite\n        // string memory str = string(_bytes32);\n        // TypeError: Explicit type conversion not allowed from \"bytes32\" to \"string storage pointer\"\n        // thus we should convert bytes32 to bytes (to dynamically-sized byte array)\n        bytes memory bytesArray = new bytes(32);\n        for (uint256 i; i < 32; i++) {\n            bytesArray[i] = _bytes32[i];\n        }\n        return string(bytesArray);\n    }\n\n    /* -------------------- Verification functions : ---------------------- */\n\n    // from user acc\n    // (!) Gas requirement: infinite\n    function uploadSignedString(string _fingerprint, string _signedString) public payable {\n\n        // check length of the uploaded string,\n        // it expected to be a 64 chars string signed with OpenPGP standard signature\n        // bytes: Dynamically-sized byte array,\n        // see: http://solidity.readthedocs.io/en/develop/types.html#dynamically-sized-byte-array\n        // if (bytes(_signedString).length > 1000) {//\n        //    revert();\n        //    // (payable)\n        // }\n        // --- not needed: if string is to big -> out of gas\n\n        // check payment :\n        if (msg.value < priceForVerificationInWei) {\n            revert();\n            // (payable)\n        }\n\n        // if signed string already uploaded, should revert\n        if (signedStringUploadedOnUnixTime[msg.sender] != 0) {\n            revert();\n            // (payable)\n        }\n\n        // fingerprint should be uppercase 40 symbols\n        if (bytes(_fingerprint).length != 40) {\n            revert();\n            // (payable)\n        }\n\n        // at this stage we can not be sure that key with this fingerprint really owned by user\n        // thus we store it as 'unverified'\n        unverifiedFingerprint[msg.sender] = _fingerprint;\n\n        // string\n        signedString[msg.sender] = _signedString;\n\n        // uint256 - Unix Time\n        signedStringUploadedOnUnixTime[msg.sender] = block.timestamp;\n\n        SignedStringUploaded(msg.sender, _fingerprint, signedString[msg.sender]);\n\n        // return true; // we don't need to return anything\n    }\n\n    event SignedStringUploaded(address indexed fromAccount, string fingerprint, string uploadedString);\n\n    // from 'manager' account only\n    // (!) Gas requirement: infinite\n    function addVerificationData(\n        address _acc, //\n        string _fingerprint, // \"57A5FEE5A34D563B4B85ADF3CE369FD9E77173E5\"\n        bytes20 _fingerprintBytes20, // \"0x57A5FEE5A34D563B4B85ADF3CE369FD9E77173E5\"\n        uint _keyCertificateValidUntil, //\n        string _firstName, //\n        string _lastName, //\n        uint _birthDate, //\n        string _nationality) public {\n\n        // (!!!) only manager can add verification data\n        require(isManager[msg.sender]);\n\n        // check input\n        // fingerprint should be uppercase 40 symbols\n        // require(bytes(_fingerprint).length == 40);\n        // require(bytes(_firstName).length <= 32);\n        // require(bytes(_lastName).length <= 32);\n        // _nationality should be like \"IL\" or \"US\"\n        // require(bytes(_nationality).length == 2);\n        // >>> if we control manager account we can make checks before sending data to smart contract (cheaper)\n\n        // check if signed string uploaded\n        require(signedStringUploadedOnUnixTime[_acc] != 0);\n        // to make possible adding verification only one time:\n        require(verificationAddedOn[_acc] == 0);\n\n        verification[_acc].fingerprint = _fingerprint;\n        fingerprint[_acc] = _fingerprintBytes20;\n\n        addressAttached[_fingerprintBytes20] = _acc;\n\n        verification[_acc].keyCertificateValidUntil = keyCertificateValidUntil[_acc] = _keyCertificateValidUntil;\n        verification[_acc].firstName = _firstName;\n        firstName[_acc] = stringToBytes32(_firstName);\n        verification[_acc].lastName = _lastName;\n        lastName[_acc] = stringToBytes32(_lastName);\n        verification[_acc].birthDate = birthDate[_acc] = _birthDate;\n        verification[_acc].nationality = _nationality;\n        nationality[_acc] = stringToBytes32(_nationality);\n        verification[_acc].verificationAddedOn = verificationAddedOn[_acc] = block.timestamp;\n\n        VerificationAdded(\n            verification[_acc].fingerprint,\n            _acc,\n        // keyCertificateValidUntil[_acc],\n        // verification[_acc].firstName,\n        // verification[_acc].lastName,\n        // birthDate[_acc],\n        // verification[_acc].nationality,\n            msg.sender\n        );\n        // return true;\n    }\n\n    event VerificationAdded (\n        string forFingerprint,\n        address indexed verifiedAccount, // (1) indexed\n    // uint keyCertificateValidUntilUnixTime,\n    // string userFirstName,\n    // string userLastName,\n    // uint userBirthDate,\n    // string userNationality,\n        address verificationAddedByAccount\n    );\n\n    // from user or 'manager' account\n    function revokeVerification(address _acc) public {// (!) Gas requirement: infinite\n        require(msg.sender == _acc || isManager[msg.sender]);\n\n        verification[_acc].revokedOn = revokedOn[_acc] = block.timestamp;\n\n        // event\n        VerificationRevoked(\n            _acc,\n            verification[_acc].fingerprint,\n            block.timestamp,\n            msg.sender\n        );\n    }\n\n    event VerificationRevoked (\n        address indexed revocedforAccount, // (1) indexed\n        string withFingerprint,\n        uint revokedOnUnixTime,\n        address indexed revokedBy // (2) indexed\n    );\n\n    /* -------------------- Administrative functions : ---------------------- */\n\n    // to avoid mistakes: owner (super admin) should be changed in two steps\n    // change is valid when accepted from new owner address\n    address private newOwner;\n    // only owner\n    function changeOwnerStart(address _newOwner) public {\n        require(msg.sender == owner);\n        newOwner = _newOwner;\n        ChangeOwnerStarted(msg.sender, _newOwner);\n    } //\n    event ChangeOwnerStarted (address indexed startedBy, address indexed newOwner);\n    // only by new owner\n    function changeOwnerAccept() public {\n        require(msg.sender == newOwner);\n        // event here:\n        OwnerChanged(owner, newOwner);\n        owner = newOwner;\n    } //\n    event OwnerChanged(address indexed from, address indexed to);\n\n    // only owner\n    function addManager(address _acc) public {\n        require(msg.sender == owner);\n        isManager[_acc] = true;\n        ManagerAdded(_acc, msg.sender);\n    } //\n    event ManagerAdded (address indexed added, address indexed addedBy);\n    // only owner\n    function removeManager(address manager) public {\n        require(msg.sender == owner);\n        isManager[manager] = false;\n        ManagerRemoved(manager, msg.sender);\n    } //\n    event ManagerRemoved(address indexed removed, address indexed removedBy);\n\n    // only by manager\n    function setPriceForVerification(uint priceInWei) public {\n        // see converter on https://etherconverter.online\n        require(isManager[msg.sender]);\n        uint oldPrice = priceForVerificationInWei;\n        priceForVerificationInWei = priceInWei;\n        PriceChanged(oldPrice, priceForVerificationInWei, msg.sender);\n    } //\n    event PriceChanged(uint from, uint to, address indexed changedBy);\n\n    // !!! can be called by any user or contract\n    // check for re-entrancy vulnerability http://solidity.readthedocs.io/en/develop/security-considerations.html#re-entrancy\n    // >>> since we are making a withdrawal to our own contract only there is no possible attack using re-entrancy vulnerability,\n    function withdrawAllToWithdrawalAddress() public returns (bool) {// (!) Gas requirement: infinite\n        // http://solidity.readthedocs.io/en/develop/security-considerations.html#sending-and-receiving-ether\n        // about <address>.send(uint256 amount) and <address>.transfer(uint256 amount)\n        // see: http://solidity.readthedocs.io/en/latest/units-and-global-variables.html?highlight=transfer#address-related\n        // https://ethereum.stackexchange.com/questions/19341/address-send-vs-address-transfer-best-practice-usage\n        uint sum = this.balance;\n        if (!withdrawalAddress.send(this.balance)) {// makes withdrawal and returns true or false\n            Withdrawal(withdrawalAddress, sum, msg.sender, false);\n            return false;\n        }\n        Withdrawal(withdrawalAddress, sum, msg.sender, true);\n        return true;\n    } //\n    event Withdrawal(address indexed to, uint sumInWei, address indexed by, bool success);\n\n    // only owner\n    function setWithdrawalAddress(address _withdrawalAddress) public {\n        require(msg.sender == owner);\n        require(!withdrawalAddressFixed);\n        WithdrawalAddressChanged(withdrawalAddress, _withdrawalAddress, msg.sender);\n        withdrawalAddress = _withdrawalAddress;\n    } //\n    event WithdrawalAddressChanged(address indexed from, address indexed to, address indexed changedBy);\n\n    // only owner\n    function fixWithdrawalAddress(address _withdrawalAddress) public returns (bool) {\n        require(msg.sender == owner);\n        require(withdrawalAddress == _withdrawalAddress);\n\n        // prevents event if already fixed\n        require(!withdrawalAddressFixed);\n\n        withdrawalAddressFixed = true;\n        WithdrawalAddressFixed(withdrawalAddress, msg.sender);\n        return true;\n    } //\n    // this event can be fired one time only\n    event WithdrawalAddressFixed(address withdrawalAddressFixedAs, address fixedBy);\n\n}\n",
  "sourcePath": "/home/viktor/Dropbox/GIT/CRYPTONOMICA/Ethereum-IdentityVerification/smartContract/contracts/CryptonomicaVerification.sol",
  "compiler": {
    "name": "solc",
    "version": "0.4.19+commit.c4cbbb05.Emscripten.clang"
  },
  "schemaVersion": "1.0.1",
  "updatedAt": "2018-02-20T10:54:52.006Z"
}